{
  "contractName": "stkGRO",
  "abi": [
    {
      "inputs": [],
      "stateMutability": "nonpayable",
      "type": "constructor"
    },
    {
      "anonymous": false,
      "inputs": [
        {
          "indexed": true,
          "internalType": "address",
          "name": "owner",
          "type": "address"
        },
        {
          "indexed": true,
          "internalType": "address",
          "name": "spender",
          "type": "address"
        },
        {
          "indexed": false,
          "internalType": "uint256",
          "name": "value",
          "type": "uint256"
        }
      ],
      "name": "Approval",
      "type": "event"
    },
    {
      "anonymous": false,
      "inputs": [
        {
          "indexed": true,
          "internalType": "address",
          "name": "_voter",
          "type": "address"
        },
        {
          "indexed": true,
          "internalType": "address",
          "name": "_oldCandidate",
          "type": "address"
        },
        {
          "indexed": true,
          "internalType": "address",
          "name": "_newCandidate",
          "type": "address"
        }
      ],
      "name": "ChangeCandidate",
      "type": "event"
    },
    {
      "anonymous": false,
      "inputs": [
        {
          "indexed": true,
          "internalType": "address",
          "name": "_candidate",
          "type": "address"
        },
        {
          "indexed": false,
          "internalType": "uint256",
          "name": "_oldVotes",
          "type": "uint256"
        },
        {
          "indexed": false,
          "internalType": "uint256",
          "name": "_newVotes",
          "type": "uint256"
        }
      ],
      "name": "ChangeVotes",
      "type": "event"
    },
    {
      "anonymous": false,
      "inputs": [
        {
          "indexed": true,
          "internalType": "address",
          "name": "from",
          "type": "address"
        },
        {
          "indexed": true,
          "internalType": "address",
          "name": "to",
          "type": "address"
        },
        {
          "indexed": false,
          "internalType": "uint256",
          "name": "value",
          "type": "uint256"
        }
      ],
      "name": "Transfer",
      "type": "event"
    },
    {
      "inputs": [
        {
          "internalType": "address",
          "name": "owner",
          "type": "address"
        },
        {
          "internalType": "address",
          "name": "spender",
          "type": "address"
        }
      ],
      "name": "allowance",
      "outputs": [
        {
          "internalType": "uint256",
          "name": "",
          "type": "uint256"
        }
      ],
      "stateMutability": "view",
      "type": "function"
    },
    {
      "inputs": [
        {
          "internalType": "address",
          "name": "spender",
          "type": "address"
        },
        {
          "internalType": "uint256",
          "name": "amount",
          "type": "uint256"
        }
      ],
      "name": "approve",
      "outputs": [
        {
          "internalType": "bool",
          "name": "",
          "type": "bool"
        }
      ],
      "stateMutability": "nonpayable",
      "type": "function"
    },
    {
      "inputs": [
        {
          "internalType": "address",
          "name": "account",
          "type": "address"
        }
      ],
      "name": "balanceOf",
      "outputs": [
        {
          "internalType": "uint256",
          "name": "",
          "type": "uint256"
        }
      ],
      "stateMutability": "view",
      "type": "function"
    },
    {
      "inputs": [
        {
          "internalType": "uint256",
          "name": "_netShares",
          "type": "uint256"
        },
        {
          "internalType": "uint256",
          "name": "_totalReserve",
          "type": "uint256"
        },
        {
          "internalType": "uint256",
          "name": "_totalSupply",
          "type": "uint256"
        },
        {
          "internalType": "uint256",
          "name": "_depositFee",
          "type": "uint256"
        }
      ],
      "name": "calcDepositCostFromShares",
      "outputs": [
        {
          "internalType": "uint256",
          "name": "_cost",
          "type": "uint256"
        },
        {
          "internalType": "uint256",
          "name": "_feeShares",
          "type": "uint256"
        }
      ],
      "stateMutability": "pure",
      "type": "function"
    },
    {
      "inputs": [
        {
          "internalType": "uint256",
          "name": "_cost",
          "type": "uint256"
        },
        {
          "internalType": "uint256",
          "name": "_totalReserve",
          "type": "uint256"
        },
        {
          "internalType": "uint256",
          "name": "_totalSupply",
          "type": "uint256"
        },
        {
          "internalType": "uint256",
          "name": "_depositFee",
          "type": "uint256"
        }
      ],
      "name": "calcDepositSharesFromCost",
      "outputs": [
        {
          "internalType": "uint256",
          "name": "_netShares",
          "type": "uint256"
        },
        {
          "internalType": "uint256",
          "name": "_feeShares",
          "type": "uint256"
        }
      ],
      "stateMutability": "pure",
      "type": "function"
    },
    {
      "inputs": [
        {
          "internalType": "uint256",
          "name": "_grossShares",
          "type": "uint256"
        },
        {
          "internalType": "uint256",
          "name": "_totalReserve",
          "type": "uint256"
        },
        {
          "internalType": "uint256",
          "name": "_totalSupply",
          "type": "uint256"
        },
        {
          "internalType": "uint256",
          "name": "_withdrawalFee",
          "type": "uint256"
        }
      ],
      "name": "calcWithdrawalCostFromShares",
      "outputs": [
        {
          "internalType": "uint256",
          "name": "_cost",
          "type": "uint256"
        },
        {
          "internalType": "uint256",
          "name": "_feeShares",
          "type": "uint256"
        }
      ],
      "stateMutability": "pure",
      "type": "function"
    },
    {
      "inputs": [
        {
          "internalType": "uint256",
          "name": "_cost",
          "type": "uint256"
        },
        {
          "internalType": "uint256",
          "name": "_totalReserve",
          "type": "uint256"
        },
        {
          "internalType": "uint256",
          "name": "_totalSupply",
          "type": "uint256"
        },
        {
          "internalType": "uint256",
          "name": "_withdrawalFee",
          "type": "uint256"
        }
      ],
      "name": "calcWithdrawalSharesFromCost",
      "outputs": [
        {
          "internalType": "uint256",
          "name": "_grossShares",
          "type": "uint256"
        },
        {
          "internalType": "uint256",
          "name": "_feeShares",
          "type": "uint256"
        }
      ],
      "stateMutability": "pure",
      "type": "function"
    },
    {
      "inputs": [
        {
          "internalType": "address",
          "name": "",
          "type": "address"
        }
      ],
      "name": "candidate",
      "outputs": [
        {
          "internalType": "address",
          "name": "",
          "type": "address"
        }
      ],
      "stateMutability": "view",
      "type": "function"
    },
    {
      "inputs": [],
      "name": "decimals",
      "outputs": [
        {
          "internalType": "uint8",
          "name": "",
          "type": "uint8"
        }
      ],
      "stateMutability": "view",
      "type": "function"
    },
    {
      "inputs": [
        {
          "internalType": "address",
          "name": "spender",
          "type": "address"
        },
        {
          "internalType": "uint256",
          "name": "subtractedValue",
          "type": "uint256"
        }
      ],
      "name": "decreaseAllowance",
      "outputs": [
        {
          "internalType": "bool",
          "name": "",
          "type": "bool"
        }
      ],
      "stateMutability": "nonpayable",
      "type": "function"
    },
    {
      "inputs": [
        {
          "internalType": "uint256",
          "name": "_cost",
          "type": "uint256"
        }
      ],
      "name": "deposit",
      "outputs": [],
      "stateMutability": "nonpayable",
      "type": "function"
    },
    {
      "inputs": [],
      "name": "depositFee",
      "outputs": [
        {
          "internalType": "uint256",
          "name": "_depositFee",
          "type": "uint256"
        }
      ],
      "stateMutability": "view",
      "type": "function"
    },
    {
      "inputs": [
        {
          "internalType": "address",
          "name": "spender",
          "type": "address"
        },
        {
          "internalType": "uint256",
          "name": "addedValue",
          "type": "uint256"
        }
      ],
      "name": "increaseAllowance",
      "outputs": [
        {
          "internalType": "bool",
          "name": "",
          "type": "bool"
        }
      ],
      "stateMutability": "nonpayable",
      "type": "function"
    },
    {
      "inputs": [],
      "name": "name",
      "outputs": [
        {
          "internalType": "string",
          "name": "",
          "type": "string"
        }
      ],
      "stateMutability": "view",
      "type": "function"
    },
    {
      "inputs": [],
      "name": "reserveToken",
      "outputs": [
        {
          "internalType": "address",
          "name": "",
          "type": "address"
        }
      ],
      "stateMutability": "view",
      "type": "function"
    },
    {
      "inputs": [
        {
          "internalType": "address",
          "name": "_newCandidate",
          "type": "address"
        }
      ],
      "name": "setCandidate",
      "outputs": [],
      "stateMutability": "nonpayable",
      "type": "function"
    },
    {
      "inputs": [],
      "name": "symbol",
      "outputs": [
        {
          "internalType": "string",
          "name": "",
          "type": "string"
        }
      ],
      "stateMutability": "view",
      "type": "function"
    },
    {
      "inputs": [],
      "name": "totalReserve",
      "outputs": [
        {
          "internalType": "uint256",
          "name": "_totalReserve",
          "type": "uint256"
        }
      ],
      "stateMutability": "view",
      "type": "function"
    },
    {
      "inputs": [],
      "name": "totalSupply",
      "outputs": [
        {
          "internalType": "uint256",
          "name": "",
          "type": "uint256"
        }
      ],
      "stateMutability": "view",
      "type": "function"
    },
    {
      "inputs": [
        {
          "internalType": "address",
          "name": "recipient",
          "type": "address"
        },
        {
          "internalType": "uint256",
          "name": "amount",
          "type": "uint256"
        }
      ],
      "name": "transfer",
      "outputs": [
        {
          "internalType": "bool",
          "name": "",
          "type": "bool"
        }
      ],
      "stateMutability": "nonpayable",
      "type": "function"
    },
    {
      "inputs": [
        {
          "internalType": "address",
          "name": "sender",
          "type": "address"
        },
        {
          "internalType": "address",
          "name": "recipient",
          "type": "address"
        },
        {
          "internalType": "uint256",
          "name": "amount",
          "type": "uint256"
        }
      ],
      "name": "transferFrom",
      "outputs": [
        {
          "internalType": "bool",
          "name": "",
          "type": "bool"
        }
      ],
      "stateMutability": "nonpayable",
      "type": "function"
    },
    {
      "inputs": [
        {
          "internalType": "address",
          "name": "_candidate",
          "type": "address"
        }
      ],
      "name": "votes",
      "outputs": [
        {
          "internalType": "uint256",
          "name": "_votes",
          "type": "uint256"
        }
      ],
      "stateMutability": "view",
      "type": "function"
    },
    {
      "inputs": [
        {
          "internalType": "uint256",
          "name": "_grossShares",
          "type": "uint256"
        }
      ],
      "name": "withdraw",
      "outputs": [],
      "stateMutability": "nonpayable",
      "type": "function"
    },
    {
      "inputs": [],
      "name": "withdrawalFee",
      "outputs": [
        {
          "internalType": "uint256",
          "name": "_withdrawalFee",
          "type": "uint256"
        }
      ],
      "stateMutability": "view",
      "type": "function"
    }
  ],
  "bytecode": "0x60806040523480156200001157600080fd5b506040518060400160405280600a8152602001697374616b65642047524f60b01b8152506040518060400160405280600681526020016573746b47524f60d01b815250601273c1acb7dd45752495468afe2e9b2dc576f3d90e23838381600390805190602001906200008592919062000104565b5080516200009b90600490602084019062000104565b50506005805460ff19166012179055506001600655620000c4826001600160e01b03620000ee16565b600780546001600160a01b0319166001600160a01b039290921691909117905550620001a9915050565b6005805460ff191660ff92909216919091179055565b828054600181600116156101000203166002900490600052602060002090601f016020900481019282601f106200014757805160ff191683800117855562000177565b8280016001018555821562000177579182015b82811115620001775782518255916020019190600101906200015a565b506200018592915062000189565b5090565b620001a691905b8082111562000185576000815560010162000190565b90565b611daf80620001b96000396000f3fe608060405234801561001057600080fd5b50600436106101985760003560e01c80638bc7e8c4116100e3578063bf4c988e1161008c578063e7d5f87911610066578063e7d5f879146104f9578063f4325d6714610528578063f98d98f71461053057610198565b8063bf4c988e14610463578063d8bff5a5146104a5578063dd62ed3e146104cb57610198565b8063a457c2d7116100bd578063a457c2d7146103ee578063a9059cbb1461041a578063b6b55f251461044657610198565b80638bc7e8c41461038957806395d89b41146103b757806397f04e25146103bf57610198565b8063313ce567116101455780634c68df671161011f5780634c68df671461038157806367a527931461038957806370a082311461039157610198565b8063313ce567146102ef578063395093511461030d578063397808f61461033957610198565b806318160ddd1161017657806318160ddd1461028257806323b872dd1461029c5780632e1a7d4d146102d257610198565b806306fdde031461019d57806307880b7f1461021a578063095ea7b314610242575b600080fd5b6101a561055f565b6040805160208082528351818301528351919283929083019185019080838360005b838110156101df5781810151838201526020016101c7565b50505050905090810190601f16801561020c5780820380516001836020036101000a031916815260200191505b509250505060405180910390f35b6102406004803603602081101561023057600080fd5b50356001600160a01b03166105f5565b005b61026e6004803603604081101561025857600080fd5b506001600160a01b038135169060200135610707565b604080519115158252519081900360200190f35b61028a610725565b60408051918252519081900360200190f35b61026e600480360360608110156102b257600080fd5b506001600160a01b0381358116916020810135909116906040013561072b565b610240600480360360208110156102e857600080fd5b50356107b8565b6102f7610ab8565b6040805160ff9092168252519081900360200190f35b61026e6004803603604081101561032357600080fd5b506001600160a01b038135169060200135610ac1565b6103686004803603608081101561034f57600080fd5b5080359060208101359060408101359060600135610b15565b6040805192835260208301919091528051918290030190f35b61028a610b31565b61028a610bc3565b61028a600480360360208110156103a757600080fd5b50356001600160a01b0316610bcf565b6101a5610bea565b610368600480360360808110156103d557600080fd5b5080359060208101359060408101359060600135610c4b565b61026e6004803603604081101561040457600080fd5b506001600160a01b038135169060200135610c5a565b61026e6004803603604081101561043057600080fd5b506001600160a01b038135169060200135610cc8565b6102406004803603602081101561045c57600080fd5b5035610cdc565b6104896004803603602081101561047957600080fd5b50356001600160a01b0316610eb0565b604080516001600160a01b039092168252519081900360200190f35b61028a600480360360208110156104bb57600080fd5b50356001600160a01b0316610ecb565b61028a600480360360408110156104e157600080fd5b506001600160a01b0381358116916020013516610f2f565b6103686004803603608081101561050f57600080fd5b5080359060208101359060408101359060600135610f5a565b610489610f69565b6103686004803603608081101561054657600080fd5b5080359060208101359060408101359060600135610f78565b60038054604080516020601f60026000196101006001881615020190951694909404938401819004810282018101909252828152606093909290918301828280156105eb5780601f106105c0576101008083540402835291602001916105eb565b820191906000526020600020905b8154815290600101906020018083116105ce57829003601f168201915b5050505050905090565b6002600654141561064d576040805162461bcd60e51b815260206004820152601f60248201527f5265656e7472616e637947756172643a207265656e7472616e742063616c6c00604482015290519081900360640190fd5b600260065533600061065e82610bcf565b6001600160a01b03808416600090815260086020526040902080548683167fffffffffffffffffffffffff0000000000000000000000000000000000000000821617909155919250166106b2818584610f87565b836001600160a01b0316816001600160a01b0316846001600160a01b03167f426a69ad29253c6955e1e1c1aa3d839cb461b956ba993f661a249d20b78ffb0260405160405180910390a4505060016006555050565b600061071b6107146110bf565b84846110c3565b5060015b92915050565b60025490565b60006107388484846111af565b6107ae846107446110bf565b6107a985604051806060016040528060288152602001611cc3602891396001600160a01b038a166000908152600160205260408120906107826110bf565b6001600160a01b03168152602081019190915260400160002054919063ffffffff61131616565b6110c3565b5060019392505050565b60026006541415610810576040805162461bcd60e51b815260206004820152601f60248201527f5265656e7472616e637947756172643a207265656e7472616e742063616c6c00604482015290519081900360640190fd5b60026006553381610868576040805162461bcd60e51b815260206004820152601d60248201527f736861726573206d7573742062652067726561746572207468616e2030000000604482015290519081900360640190fd5b60008061088c84610877610b31565b61087f610725565b610887610bc3565b6113ad565b91509150600082116108e5576040805162461bcd60e51b815260206004820152601b60248201527f636f7374206d7573742062652067726561746572207468616e20300000000000604482015290519081900360640190fd5b6007546040805163f8b2cb4f60e01b81526001600160a01b0390921660048301525173__G_____________________________________91637ae2b5c7918591849163f8b2cb4f91602480820192602092909190829003018186803b15801561094d57600080fd5b505af4158015610961573d6000803e3d6000fd5b505050506040513d602081101561097757600080fd5b5051604080517fffffffff0000000000000000000000000000000000000000000000000000000060e086901b16815260048101939093526024830191909152516044808301926020929190829003018186803b1580156109d657600080fd5b505af41580156109ea573d6000803e3d6000fd5b505050506040513d6020811015610a0057600080fd5b505160075460408051630242236960e31b81526001600160a01b0392831660048201529186166024830152604482018390525191935073__G_____________________________________916312111b4891606480820192600092909190829003018186803b158015610a7257600080fd5b505af4158015610a86573d6000803e3d6000fd5b50505050610a94838561142b565b610aad610aa882600263ffffffff61153316565b61157c565b505060016006555050565b60055460ff1690565b600061071b610ace6110bf565b846107a98560016000610adf6110bf565b6001600160a01b03908116825260208083019390935260409182016000908120918c16815292529020549063ffffffff6116c816565b600080610b2486868686611722565b9150915094509492505050565b6007546040805163f8b2cb4f60e01b81526001600160a01b0390921660048301525160009173__G_____________________________________9163f8b2cb4f91602480820192602092909190829003018186803b158015610b9257600080fd5b505af4158015610ba6573d6000803e3d6000fd5b505050506040513d6020811015610bbc57600080fd5b5051905090565b67016345785d8a000090565b6001600160a01b031660009081526020819052604090205490565b60048054604080516020601f60026000196101006001881615020190951694909404938401819004810282018101909252828152606093909290918301828280156105eb5780601f106105c0576101008083540402835291602001916105eb565b600080610b24868686866113ad565b600061071b610c676110bf565b846107a985604051806060016040528060258152602001611d556025913960016000610c916110bf565b6001600160a01b03908116825260208083019390935260409182016000908120918d1681529252902054919063ffffffff61131616565b600061071b610cd56110bf565b84846111af565b60026006541415610d34576040805162461bcd60e51b815260206004820152601f60248201527f5265656e7472616e637947756172643a207265656e7472616e742063616c6c00604482015290519081900360640190fd5b60026006553381610d8c576040805162461bcd60e51b815260206004820152601b60248201527f636f7374206d7573742062652067726561746572207468616e20300000000000604482015290519081900360640190fd5b600080610db084610d9b610b31565b610da3610725565b610dab610bc3565b611790565b9150915060008211610e09576040805162461bcd60e51b815260206004820152601d60248201527f736861726573206d7573742062652067726561746572207468616e2030000000604482015290519081900360640190fd5b600754604080517f201add9b0000000000000000000000000000000000000000000000000000000081526001600160a01b0392831660048201529185166024830152604482018690525173__G_____________________________________9163201add9b916064808301926000929190829003018186803b158015610e8e57600080fd5b505af4158015610ea2573d6000803e3d6000fd5b50505050610a9483836117f7565b6008602052600090815260409020546001600160a01b031681565b600080610ee1426201518063ffffffff61153316565b6001600160a01b0384166000908152600a60209081526040808320600990925290912054919250908211610f16576001610f19565b60005b60ff1660028110610f2657fe5b01549392505050565b6001600160a01b03918216600090815260016020908152604080832093909416825291909152205490565b600080610b24868686866118f3565b6007546001600160a01b031681565b600080610b2486868686611790565b80610f91576110ba565b816001600160a01b0316836001600160a01b03161415610fb0576110ba565b6001600160a01b03831615611035576001600160a01b0383166000908152600a602052604081205490610fe38284611960565b9050610fef85826119a2565b604080518381526020810183905281516001600160a01b038816927f34db285924a8247034fe18b79b396fd7eb07b41f47a72e7d70e9f0d5c4e74724928290030190a250505b6001600160a01b038216156110ba576001600160a01b0382166000908152600a60205260408120549061106882846116c8565b905061107484826119a2565b604080518381526020810183905281516001600160a01b038716927f34db285924a8247034fe18b79b396fd7eb07b41f47a72e7d70e9f0d5c4e74724928290030190a250505b505050565b3390565b6001600160a01b0383166111085760405162461bcd60e51b8152600401808060200182810382526024815260200180611d316024913960400191505060405180910390fd5b6001600160a01b03821661114d5760405162461bcd60e51b8152600401808060200182810382526022815260200180611c5a6022913960400191505060405180910390fd5b6001600160a01b03808416600081815260016020908152604080832094871680845294825291829020859055815185815291517f8c5be1e5ebec7d5bd14f71427d1e84f3dd0314c0f7b2291e5b200ac8c7c3b9259281900390910190a3505050565b6001600160a01b0383166111f45760405162461bcd60e51b8152600401808060200182810382526025815260200180611d0c6025913960400191505060405180910390fd5b6001600160a01b0382166112395760405162461bcd60e51b8152600401808060200182810382526023815260200180611c156023913960400191505060405180910390fd5b611244838383611a26565b61128781604051806060016040528060268152602001611c7c602691396001600160a01b038616600090815260208190526040902054919063ffffffff61131616565b6001600160a01b0380851660009081526020819052604080822093909355908416815220546112bc908263ffffffff6116c816565b6001600160a01b038084166000818152602081815260409182902094909455805185815290519193928716927fddf252ad1be2c89b69c2b068fc378daa952ba7f163c4a11628f55a4df523b3ef92918290030190a3505050565b600081848411156113a55760405162461bcd60e51b81526004018080602001828103825283818151815260200191508051906020019080838360005b8381101561136a578181015183820152602001611352565b50505050905090810190601f1680156113975780820380516001836020036101000a031916815260200191505b509250505060405180910390fd5b505050900390565b600080806113e9670de0b6b3a76400006113dd6113d0828863ffffffff61196016565b8a9063ffffffff611ad016565b9063ffffffff61153316565b905084811461140b57611406856113dd838963ffffffff611ad016565b61140d565b855b925061141f878263ffffffff61196016565b91505094509492505050565b6001600160a01b0382166114705760405162461bcd60e51b8152600401808060200182810382526021815260200180611ceb6021913960400191505060405180910390fd5b61147c82600083611a26565b6114bf81604051806060016040528060228152602001611c38602291396001600160a01b038516600090815260208190526040902054919063ffffffff61131616565b6001600160a01b0383166000908152602081905260409020556002546114eb908263ffffffff61196016565b6002556040805182815290516000916001600160a01b038516917fddf252ad1be2c89b69c2b068fc378daa952ba7f163c4a11628f55a4df523b3ef9181900360200190a35050565b600061157583836040518060400160405280601a81526020017f536166654d6174683a206469766973696f6e206279207a65726f000000000000815250611b29565b9392505050565b60006115998261158a610b31565b611592610725565b60006113ad565b506007546040805163f8b2cb4f60e01b81526001600160a01b0390921660048301525191925073__G_____________________________________91637ae2b5c7918491849163f8b2cb4f916024808301926020929190829003018186803b15801561160457600080fd5b505af4158015611618573d6000803e3d6000fd5b505050506040513d602081101561162e57600080fd5b5051604080517fffffffff0000000000000000000000000000000000000000000000000000000060e086901b16815260048101939093526024830191909152516044808301926020929190829003018186803b15801561168d57600080fd5b505af41580156116a1573d6000803e3d6000fd5b505050506040513d60208110156116b757600080fd5b505190506116c481611b8e565b5050565b600082820183811015611575576040805162461bcd60e51b815260206004820152601b60248201527f536166654d6174683a206164646974696f6e206f766572666c6f770000000000604482015290519081900360640190fd5b600080600085871461174757611742866113dd898863ffffffff611ad016565b611749565b845b905061177e611766670de0b6b3a76400008663ffffffff61196016565b6113dd83670de0b6b3a764000063ffffffff611ad016565b925061141f838263ffffffff61196016565b60008060008585146117b5576117b0866113dd898863ffffffff611ad016565b6117b7565b865b90506117e5670de0b6b3a76400006113dd6117d8828863ffffffff61196016565b849063ffffffff611ad016565b925061141f818463ffffffff61196016565b6001600160a01b038216611852576040805162461bcd60e51b815260206004820152601f60248201527f45524332303a206d696e7420746f20746865207a65726f206164647265737300604482015290519081900360640190fd5b61185e60008383611a26565b600254611871908263ffffffff6116c816565b6002556001600160a01b03821660009081526020819052604090205461189d908263ffffffff6116c816565b6001600160a01b0383166000818152602081815260408083209490945583518581529351929391927fddf252ad1be2c89b69c2b068fc378daa952ba7f163c4a11628f55a4df523b3ef9281900390910190a35050565b6000808061192a611912670de0b6b3a76400008663ffffffff61196016565b6113dd89670de0b6b3a764000063ffffffff611ad016565b905084861461194c57611947856113dd838963ffffffff611ad016565b61194e565b805b925061141f818863ffffffff61196016565b600061157583836040518060400160405280601e81526020017f536166654d6174683a207375627472616374696f6e206f766572666c6f770000815250611316565b60006119b7426201518063ffffffff61153316565b6001600160a01b038416600090815260096020526040902054909150811115611a08576001600160a01b0383166000908152600960209081526040808320849055600a909152902080546001909101555b506001600160a01b03919091166000908152600a6020526040902055565b6001600160a01b0383161580611a4357506001600160a01b038216155b611a94576040805162461bcd60e51b815260206004820152601360248201527f7472616e736665722070726f6869626974656400000000000000000000000000604482015290519081900360640190fd5b6001600160a01b03808416600090815260086020526040808220548584168352912054908216911682611ac8838383610f87565b505050505050565b600082611adf5750600061071f565b82820282848281611aec57fe5b04146115755760405162461bcd60e51b8152600401808060200182810382526021815260200180611ca26021913960400191505060405180910390fd5b60008183611b785760405162461bcd60e51b815260206004820181815283516024840152835190928392604490910191908501908083836000831561136a578181015183820152602001611352565b506000838581611b8457fe5b0495945050505050565b60075460408051630242236960e31b81526001600160a01b03909216600483015260006024830181905260448301849052905173__G_____________________________________926312111b48926064808301939192829003018186803b158015611bf957600080fd5b505af4158015611c0d573d6000803e3d6000fd5b505050505056fe45524332303a207472616e7366657220746f20746865207a65726f206164647265737345524332303a206275726e20616d6f756e7420657863656564732062616c616e636545524332303a20617070726f766520746f20746865207a65726f206164647265737345524332303a207472616e7366657220616d6f756e7420657863656564732062616c616e6365536166654d6174683a206d756c7469706c69636174696f6e206f766572666c6f7745524332303a207472616e7366657220616d6f756e74206578636565647320616c6c6f77616e636545524332303a206275726e2066726f6d20746865207a65726f206164647265737345524332303a207472616e736665722066726f6d20746865207a65726f206164647265737345524332303a20617070726f76652066726f6d20746865207a65726f206164647265737345524332303a2064656372656173656420616c6c6f77616e63652062656c6f77207a65726fa26469706673582212204054653307c2d89fd1322a0d9461eb39f9030a25cc369bf6536fcb7d69eac46864736f6c63430006020033",
  "source": "/**\n * @notice Definition of stkGRO. As a gToken Type 3, it uses GRO as reserve and\n * burns both reserve and supply with each operation.\n */\npragma solidity ^0.6.0;\n\nimport './GTokenType3.sol';\n \ncontract stkGRO is GTokenType3\n{\n\tconstructor () GTokenType3(\"staked GRO\", \"stkGRO\", 18, 0xc1ACB7dD45752495468aFE2E9b2dc576F3d90E23) public\n\t{\n\t}\n}",
  "sourcePath": "/Users/mac/Desktop/blockchain-projects/bestvictor/growth-app/gro-sc/contracts/stkGRO.sol",
  "compiler": {
    "name": "solc",
    "version": "0.6.2+commit.bacdbe57.Emscripten.clang"
  },
  "schemaVersion": "3.4.1",
  "updatedAt": "2021-08-01T19:55:00.280Z",
  "devdoc": {
    "methods": {
      "allowance(address,address)": {
        "details": "See {IERC20-allowance}."
      },
      "approve(address,uint256)": {
        "details": "See {IERC20-approve}.     * Requirements:     * - `spender` cannot be the zero address."
      },
      "balanceOf(address)": {
        "details": "See {IERC20-balanceOf}."
      },
      "calcDepositCostFromShares(uint256,uint256,uint256,uint256)": {
        "params": {
          "_depositFee": "The current deposit fee as obtained by depositFee().",
          "_netShares": "The amount of this gToken shares to receive.",
          "_totalReserve": "The reserve balance as obtained by totalReserve().",
          "_totalSupply": "The shares supply as obtained by totalSupply()."
        },
        "returns": {
          "_cost": "The cost, in the reserve token, to be paid.",
          "_feeShares": "The fee amount of shares being deducted."
        }
      },
      "calcDepositSharesFromCost(uint256,uint256,uint256,uint256)": {
        "params": {
          "_cost": "The amount of reserve token being deposited.",
          "_depositFee": "The current deposit fee as obtained by depositFee().",
          "_totalReserve": "The reserve balance as obtained by totalReserve().",
          "_totalSupply": "The shares supply as obtained by totalSupply()."
        },
        "returns": {
          "_feeShares": "The fee amount of shares being deducted.",
          "_netShares": "The net amount of shares being received."
        }
      },
      "calcWithdrawalCostFromShares(uint256,uint256,uint256,uint256)": {
        "params": {
          "_grossShares": "The amount of this gToken shares to provide.",
          "_totalReserve": "The reserve balance as obtained by totalReserve().",
          "_totalSupply": "The shares supply as obtained by totalSupply().",
          "_withdrawalFee": "The current withdrawal fee as obtained by withdrawalFee()."
        },
        "returns": {
          "_cost": "The cost, in the reserve token, to be received.",
          "_feeShares": "The fee amount of shares being deducted."
        }
      },
      "calcWithdrawalSharesFromCost(uint256,uint256,uint256,uint256)": {
        "params": {
          "_cost": "The amount of reserve token being withdrawn.",
          "_totalReserve": "The reserve balance as obtained by totalReserve()",
          "_totalSupply": "The shares supply as obtained by totalSupply()",
          "_withdrawalFee": "The current withdrawal fee as obtained by withdrawalFee()"
        },
        "returns": {
          "_feeShares": "The fee amount of shares being deducted.",
          "_grossShares": "The total amount of shares being deducted,                     including fees."
        }
      },
      "decimals()": {
        "details": "Returns the number of decimals used to get its user representation. For example, if `decimals` equals `2`, a balance of `505` tokens should be displayed to a user as `5,05` (`505 / 10 ** 2`).     * Tokens usually opt for a value of 18, imitating the relationship between Ether and Wei. This is the value {ERC20} uses, unless {_setupDecimals} is called.     * NOTE: This information is only used for _display_ purposes: it in no way affects any of the arithmetic of the contract, including {IERC20-balanceOf} and {IERC20-transfer}."
      },
      "decreaseAllowance(address,uint256)": {
        "details": "Atomically decreases the allowance granted to `spender` by the caller.     * This is an alternative to {approve} that can be used as a mitigation for problems described in {IERC20-approve}.     * Emits an {Approval} event indicating the updated allowance.     * Requirements:     * - `spender` cannot be the zero address. - `spender` must have allowance for the caller of at least `subtractedValue`."
      },
      "deposit(uint256)": {
        "params": {
          "_cost": "The amount of reserve token being deposited in the             operation."
        }
      },
      "increaseAllowance(address,uint256)": {
        "details": "Atomically increases the allowance granted to `spender` by the caller.     * This is an alternative to {approve} that can be used as a mitigation for problems described in {IERC20-approve}.     * Emits an {Approval} event indicating the updated allowance.     * Requirements:     * - `spender` cannot be the zero address."
      },
      "name()": {
        "details": "Returns the name of the token."
      },
      "setCandidate(address)": {
        "params": {
          "_newCandidate": "The new candidate chosen."
        }
      },
      "symbol()": {
        "details": "Returns the symbol of the token, usually a shorter version of the name."
      },
      "totalSupply()": {
        "details": "See {IERC20-totalSupply}."
      },
      "transfer(address,uint256)": {
        "details": "See {IERC20-transfer}.     * Requirements:     * - `recipient` cannot be the zero address. - the caller must have a balance of at least `amount`."
      },
      "transferFrom(address,address,uint256)": {
        "details": "See {IERC20-transferFrom}.     * Emits an {Approval} event indicating the updated allowance. This is not required by the EIP. See the note at the beginning of {ERC20};     * Requirements: - `sender` and `recipient` cannot be the zero address. - `sender` must have a balance of at least `amount`. - the caller must have allowance for ``sender``'s tokens of at least `amount`."
      },
      "votes(address)": {
        "params": {
          "_candidate": "The candidate for which we want to know the number                  of delegated votes."
        },
        "returns": {
          "_votes": "The candidate number of votes. It is the sum of the               balances of the voters that have him as cadidate at               the end of the previous voting interval."
        }
      },
      "withdraw(uint256)": {
        "params": {
          "_grossShares": "The gross amount of this gToken shares being                    redeemed in the operation."
        }
      }
    }
  },
  "userdoc": {
    "methods": {
      "calcDepositCostFromShares(uint256,uint256,uint256,uint256)": {
        "notice": "Allows for the beforehand calculation of the amount of        reserve token to be deposited in order to receive the desired        amount of shares."
      },
      "calcDepositSharesFromCost(uint256,uint256,uint256,uint256)": {
        "notice": "Allows for the beforehand calculation of shares to be        received/minted upon depositing to the contract."
      },
      "calcWithdrawalCostFromShares(uint256,uint256,uint256,uint256)": {
        "notice": "Allows for the beforehand calculation of the amount of        reserve token to be withdrawn given the desired amount of        shares."
      },
      "calcWithdrawalSharesFromCost(uint256,uint256,uint256,uint256)": {
        "notice": "Allows for the beforehand calculation of shares to be        given/burned upon withdrawing from the contract."
      },
      "deposit(uint256)": {
        "notice": "Performs the minting of gToken shares upon the deposit of the        reserve token. The actual number of shares being minted can        be calculated using the calcDepositSharesFromCost function.        In every deposit, 10% of the shares is retained in terms of        deposit fee. The fee amount and half of its equivalent        reserve amount are immediately burned. The funds will be        pulled in by this contract, therefore they must be previously        approved."
      },
      "depositFee()": {
        "notice": "Provides the current minting/deposit fee. This fee is        applied to the amount of this gToken shares being created        upon deposit. The fee defaults to 10%."
      },
      "setCandidate(address)": {
        "notice": "Changes the voter's choice for candidate and vote delegation.        It is only going to be reflected in the voting by the next        interval. The interval is 24 hours and resets at 12AM UTC.        This function will emit a ChangeCandidate event."
      },
      "totalReserve()": {
        "notice": "Provides the amount of reserve tokens currently being help by        this contract."
      },
      "votes(address)": {
        "notice": "Provides the number of votes a given candidate has at the end        of the previous voting interval. The interval is 24 hours        and resets at 12AM UTC. See _transferVotes()."
      },
      "withdraw(uint256)": {
        "notice": "Performs the burning of gToken shares upon the withdrawal of        the reserve token. The actual amount of the reserve token to        be received can be calculated using the        calcWithdrawalCostFromShares function. In every withdrawal,        10% of the shares is retained in terms of withdrawal fee.        The fee amount and half of its equivalent reserve amount are        immediately burned."
      },
      "withdrawalFee()": {
        "notice": "Provides the current burning/withdrawal fee. This fee is        applied to the amount of this gToken shares being redeemed        upon withdrawal. The fee defaults to 10%."
      }
    }
  }
}